{
  "contractName": "TweetStorage",
  "abi": [
    {
      "constant": false,
      "inputs": [
        {
          "name": "_controllerAddr",
          "type": "address"
        }
      ],
      "name": "setControllerAddr",
      "outputs": [],
      "payable": false,
      "stateMutability": "nonpayable",
      "type": "function"
    },
    {
      "constant": true,
      "inputs": [],
      "name": "ownerAddr",
      "outputs": [
        {
          "name": "",
          "type": "address"
        }
      ],
      "payable": false,
      "stateMutability": "view",
      "type": "function"
    },
    {
      "constant": true,
      "inputs": [
        {
          "name": "",
          "type": "uint256"
        }
      ],
      "name": "tweets",
      "outputs": [
        {
          "name": "id",
          "type": "uint256"
        },
        {
          "name": "text",
          "type": "string"
        },
        {
          "name": "userId",
          "type": "uint256"
        },
        {
          "name": "postedAt",
          "type": "uint256"
        }
      ],
      "payable": false,
      "stateMutability": "view",
      "type": "function"
    },
    {
      "constant": true,
      "inputs": [],
      "name": "controllerAddr",
      "outputs": [
        {
          "name": "",
          "type": "address"
        }
      ],
      "payable": false,
      "stateMutability": "view",
      "type": "function"
    },
    {
      "constant": false,
      "inputs": [
        {
          "name": "_newOwner",
          "type": "address"
        }
      ],
      "name": "transferOwnership",
      "outputs": [],
      "payable": false,
      "stateMutability": "nonpayable",
      "type": "function"
    },
    {
      "constant": false,
      "inputs": [
        {
          "name": "_userId",
          "type": "uint256"
        },
        {
          "name": "_text",
          "type": "string"
        }
      ],
      "name": "createTweet",
      "outputs": [
        {
          "name": "",
          "type": "uint256"
        }
      ],
      "payable": false,
      "stateMutability": "nonpayable",
      "type": "function"
    }
  ],
  "bytecode": "0x60806040526000600355336000806101000a81548173ffffffffffffffffffffffffffffffffffffffff021916908373ffffffffffffffffffffffffffffffffffffffff160217905550610767806100586000396000f3fe608060405234801561001057600080fd5b50600436106100625760003560e01c80636981fa7d146100675780637cc82f20146100ab5780639c675eaa14610184578063e8d857b0146101ce578063ee255c571461028a578063f2fde38b146102d4575b600080fd5b6100a96004803603602081101561007d57600080fd5b81019080803573ffffffffffffffffffffffffffffffffffffffff169060200190929190505050610318565b005b61016e600480360360408110156100c157600080fd5b8101908080359060200190929190803590602001906401000000008111156100e857600080fd5b8201836020820111156100fa57600080fd5b8035906020019184600183028401116401000000008311171561011c57600080fd5b91908080601f016020809104026020016040519081016040528093929190818152602001838380828437600081840152601f19601f8201169050808301925050505050505091929192905050506103b5565b6040518082815260200191505060405180910390f35b61018c6104a4565b604051808273ffffffffffffffffffffffffffffffffffffffff1673ffffffffffffffffffffffffffffffffffffffff16815260200191505060405180910390f35b6101fa600480360360208110156101e457600080fd5b81019080803590602001909291905050506104c9565b6040518085815260200180602001848152602001838152602001828103825285818151815260200191508051906020019080838360005b8381101561024c578082015181840152602081019050610231565b50505050905090810190601f1680156102795780820380516001836020036101000a031916815260200191505b509550505050505060405180910390f35b610292610591565b604051808273ffffffffffffffffffffffffffffffffffffffff1673ffffffffffffffffffffffffffffffffffffffff16815260200191505060405180910390f35b610316600480360360208110156102ea57600080fd5b81019080803573ffffffffffffffffffffffffffffffffffffffff1690602001909291905050506105b7565b005b6000809054906101000a900473ffffffffffffffffffffffffffffffffffffffff1673ffffffffffffffffffffffffffffffffffffffff163373ffffffffffffffffffffffffffffffffffffffff161461037157600080fd5b80600160006101000a81548173ffffffffffffffffffffffffffffffffffffffff021916908373ffffffffffffffffffffffffffffffffffffffff16021790555050565b6000600160009054906101000a900473ffffffffffffffffffffffffffffffffffffffff1673ffffffffffffffffffffffffffffffffffffffff163373ffffffffffffffffffffffffffffffffffffffff161461041157600080fd5b600360008154809291906001019190505550604051806080016040528060035481526020018381526020018481526020014281525060026000600354815260200190815260200160002060008201518160000155602082015181600101908051906020019061048192919061068d565b506040820151816002015560608201518160030155905050600354905092915050565b6000809054906101000a900473ffffffffffffffffffffffffffffffffffffffff1681565b6002602052806000526040600020600091509050806000015490806001018054600181600116156101000203166002900480601f01602080910402602001604051908101604052809291908181526020018280546001816001161561010002031660029004801561057b5780601f106105505761010080835404028352916020019161057b565b820191906000526020600020905b81548152906001019060200180831161055e57829003601f168201915b5050505050908060020154908060030154905084565b600160009054906101000a900473ffffffffffffffffffffffffffffffffffffffff1681565b6000809054906101000a900473ffffffffffffffffffffffffffffffffffffffff1673ffffffffffffffffffffffffffffffffffffffff163373ffffffffffffffffffffffffffffffffffffffff161461061057600080fd5b600073ffffffffffffffffffffffffffffffffffffffff168173ffffffffffffffffffffffffffffffffffffffff16141561064a57600080fd5b806000806101000a81548173ffffffffffffffffffffffffffffffffffffffff021916908373ffffffffffffffffffffffffffffffffffffffff16021790555050565b828054600181600116156101000203166002900490600052602060002090601f016020900481019282601f106106ce57805160ff19168380011785556106fc565b828001600101855582156106fc579182015b828111156106fb5782518255916020019190600101906106e0565b5b509050610709919061070d565b5090565b61072f91905b8082111561072b576000816000905550600101610713565b5090565b9056fea265627a7a72305820cf15a3baf4b6bfd62fc2df92b9e9dd8491e8227df96d69d31c4d26cef07e206e64736f6c634300050a0032",
  "source": "// SPDX-License-Identifier: MIT\npragma solidity ^0.5.10;\nimport '../helpers/BaseStorage.sol';\ncontract TweetStorage is BaseStorage {\n    mapping(uint => Tweet) public tweets;\n    \n    struct Tweet {\n        uint id;\n        string text;\n        uint userId;\n        uint postedAt;\n    }\n\n    uint latestTweetId = 0;\n\n    function createTweet(uint _userId, string memory _text) public onlyController returns(uint) {\n        latestTweetId++;\n\n        tweets[latestTweetId] = Tweet(latestTweetId, _text, _userId, now);\n\n        return latestTweetId;\n  }\n}",
  "sourcePath": "/home/supersahil_blockchain/Desktop/BlockchainProjects/Tweether/contracts/tweets/TweetStorage.sol",
  "compiler": {
    "name": "solc",
    "version": "0.5.10+commit.5a6ea5b1.Emscripten.clang"
  },
  "schemaVersion": "3.4.4",
  "updatedAt": "2022-02-03T11:50:09.078Z",
  "networkType": "ethereum",
  "devdoc": {
    "methods": {}
  },
  "userdoc": {
    "methods": {}
  }
}